{
  "_format": "hh-sol-artifact-1",
  "contractName": "SaveAsset",
  "sourceName": "contracts/SaveAsset.sol",
  "abi": [
    {
      "inputs": [
        {
          "internalType": "address",
          "name": "_token",
          "type": "address"
        }
      ],
      "stateMutability": "nonpayable",
      "type": "constructor"
    },
    {
      "anonymous": false,
      "inputs": [
        {
          "indexed": true,
          "internalType": "address",
          "name": "sender",
          "type": "address"
        },
        {
          "indexed": true,
          "internalType": "uint256",
          "name": "amount",
          "type": "uint256"
        }
      ],
      "name": "DepositSuccessful",
      "type": "event"
    },
    {
      "anonymous": false,
      "inputs": [
        {
          "indexed": true,
          "internalType": "address",
          "name": "receiver",
          "type": "address"
        },
        {
          "indexed": true,
          "internalType": "uint256",
          "name": "amount",
          "type": "uint256"
        },
        {
          "indexed": false,
          "internalType": "bytes",
          "name": "data",
          "type": "bytes"
        }
      ],
      "name": "WithdrawalSuccessful",
      "type": "event"
    },
    {
      "inputs": [],
      "name": "depositEther",
      "outputs": [],
      "stateMutability": "payable",
      "type": "function"
    },
    {
      "inputs": [
        {
          "internalType": "uint256",
          "name": "_amount",
          "type": "uint256"
        }
      ],
      "name": "depositToken",
      "outputs": [],
      "stateMutability": "nonpayable",
      "type": "function"
    },
    {
      "inputs": [
        {
          "internalType": "address",
          "name": "",
          "type": "address"
        }
      ],
      "name": "etherBalances",
      "outputs": [
        {
          "internalType": "uint256",
          "name": "",
          "type": "uint256"
        }
      ],
      "stateMutability": "view",
      "type": "function"
    },
    {
      "inputs": [],
      "name": "getContractBalance",
      "outputs": [
        {
          "internalType": "uint256",
          "name": "",
          "type": "uint256"
        }
      ],
      "stateMutability": "view",
      "type": "function"
    },
    {
      "inputs": [],
      "name": "getTokenBalance",
      "outputs": [
        {
          "internalType": "uint256",
          "name": "",
          "type": "uint256"
        }
      ],
      "stateMutability": "view",
      "type": "function"
    },
    {
      "inputs": [],
      "name": "getUserEherSavings",
      "outputs": [
        {
          "internalType": "uint256",
          "name": "",
          "type": "uint256"
        }
      ],
      "stateMutability": "view",
      "type": "function"
    },
    {
      "inputs": [
        {
          "internalType": "address",
          "name": "",
          "type": "address"
        }
      ],
      "name": "tokenBalances",
      "outputs": [
        {
          "internalType": "uint256",
          "name": "",
          "type": "uint256"
        }
      ],
      "stateMutability": "view",
      "type": "function"
    },
    {
      "inputs": [
        {
          "internalType": "uint256",
          "name": "_amount",
          "type": "uint256"
        }
      ],
      "name": "withdrawEther",
      "outputs": [],
      "stateMutability": "nonpayable",
      "type": "function"
    },
    {
      "inputs": [
        {
          "internalType": "uint256",
          "name": "_amount",
          "type": "uint256"
        }
      ],
      "name": "withdrawToken",
      "outputs": [],
      "stateMutability": "nonpayable",
      "type": "function"
    }
  ],
  "bytecode": "0x608060405234801561001057600080fd5b506040516112b23803806112b2833981810160405281019061003291906100db565b806000806101000a81548173ffffffffffffffffffffffffffffffffffffffff021916908373ffffffffffffffffffffffffffffffffffffffff16021790555050610108565b600080fd5b600073ffffffffffffffffffffffffffffffffffffffff82169050919050565b60006100a88261007d565b9050919050565b6100b88161009d565b81146100c357600080fd5b50565b6000815190506100d5816100af565b92915050565b6000602082840312156100f1576100f0610078565b5b60006100ff848285016100c6565b91505092915050565b61119b806101176000396000f3fe6080604052600436106100865760003560e01c80636215be77116100595780636215be77146101455780636f9fb98a1461016e57806382b2e257146101995780639653f8a1146101c457806398ea5fca1461020157610086565b806318b5a72d1461008b5780633bed33ce146100b657806350baa622146100df578063523fba7f14610108575b600080fd5b34801561009757600080fd5b506100a061020b565b6040516100ad9190610b9d565b60405180910390f35b3480156100c257600080fd5b506100dd60048036038101906100d89190610be9565b610252565b005b3480156100eb57600080fd5b5061010660048036038101906101019190610be9565b61049a565b005b34801561011457600080fd5b5061012f600480360381019061012a9190610c74565b610714565b60405161013c9190610b9d565b60405180910390f35b34801561015157600080fd5b5061016c60048036038101906101679190610be9565b61072c565b005b34801561017a57600080fd5b50610183610a06565b6040516101909190610b9d565b60405180910390f35b3480156101a557600080fd5b506101ae610a0e565b6040516101bb9190610b9d565b60405180910390f35b3480156101d057600080fd5b506101eb60048036038101906101e69190610c74565b610a55565b6040516101f89190610b9d565b60405180910390f35b610209610a6d565b005b6000600160003373ffffffffffffffffffffffffffffffffffffffff1673ffffffffffffffffffffffffffffffffffffffff16815260200190815260200160002054905090565b600073ffffffffffffffffffffffffffffffffffffffff163373ffffffffffffffffffffffffffffffffffffffff16036102c1576040517f08c379a00000000000000000000000000000000000000000000000000000000081526004016102b890610cfe565b60405180910390fd5b6000600160003373ffffffffffffffffffffffffffffffffffffffff1673ffffffffffffffffffffffffffffffffffffffff16815260200190815260200160002054905060008111610348576040517f08c379a000000000000000000000000000000000000000000000000000000000815260040161033f90610d6a565b60405180910390fd5b81816103549190610db9565b600160003373ffffffffffffffffffffffffffffffffffffffff1673ffffffffffffffffffffffffffffffffffffffff168152602001908152602001600020819055506000803373ffffffffffffffffffffffffffffffffffffffff16846040516103be90610e1e565b60006040518083038185875af1925050503d80600081146103fb576040519150601f19603f3d011682016040523d82523d6000602084013e610400565b606091505b509150915081610445576040517f08c379a000000000000000000000000000000000000000000000000000000000815260040161043c90610e7f565b60405180910390fd5b833373ffffffffffffffffffffffffffffffffffffffff167f38c4cbe065ed2235be0df490ea24f35671853f70bb149d4ff8739d9f8d716af68360405161048c9190610f2f565b60405180910390a350505050565b600073ffffffffffffffffffffffffffffffffffffffff163373ffffffffffffffffffffffffffffffffffffffff1603610509576040517f08c379a000000000000000000000000000000000000000000000000000000000815260040161050090610cfe565b60405180910390fd5b6000600260003373ffffffffffffffffffffffffffffffffffffffff1673ffffffffffffffffffffffffffffffffffffffff16815260200190815260200160002054905081811015610590576040517f08c379a000000000000000000000000000000000000000000000000000000000815260040161058790610d6a565b60405180910390fd5b818161059c9190610db9565b600260003373ffffffffffffffffffffffffffffffffffffffff1673ffffffffffffffffffffffffffffffffffffffff1681526020019081526020016000208190555060008060009054906101000a900473ffffffffffffffffffffffffffffffffffffffff1673ffffffffffffffffffffffffffffffffffffffff1663a9059cbb33856040518363ffffffff1660e01b815260040161063d929190610f60565b6020604051808303816000875af115801561065c573d6000803e3d6000fd5b505050506040513d601f19601f820116820180604052508101906106809190610fc1565b9050806106c2576040517f08c379a00000000000000000000000000000000000000000000000000000000081526004016106b990610e7f565b60405180910390fd5b823373ffffffffffffffffffffffffffffffffffffffff167f38c4cbe065ed2235be0df490ea24f35671853f70bb149d4ff8739d9f8d716af660405161070790611011565b60405180910390a3505050565b60026020528060005260406000206000915090505481565b6000811161076f576040517f08c379a00000000000000000000000000000000000000000000000000000000081526004016107669061107d565b60405180910390fd5b8060008054906101000a900473ffffffffffffffffffffffffffffffffffffffff1673ffffffffffffffffffffffffffffffffffffffff166370a08231336040518263ffffffff1660e01b81526004016107c9919061109d565b602060405180830381865afa1580156107e6573d6000803e3d6000fd5b505050506040513d601f19601f8201168201806040525081019061080a91906110cd565b101561084b576040517f08c379a000000000000000000000000000000000000000000000000000000000815260040161084290610d6a565b60405180910390fd5b80600260003373ffffffffffffffffffffffffffffffffffffffff1673ffffffffffffffffffffffffffffffffffffffff1681526020019081526020016000205461089691906110fa565b600260003373ffffffffffffffffffffffffffffffffffffffff1673ffffffffffffffffffffffffffffffffffffffff1681526020019081526020016000208190555060008060009054906101000a900473ffffffffffffffffffffffffffffffffffffffff1673ffffffffffffffffffffffffffffffffffffffff166323b872dd3330856040518463ffffffff1660e01b81526004016109399392919061112e565b6020604051808303816000875af1158015610958573d6000803e3d6000fd5b505050506040513d601f19601f8201168201806040525081019061097c9190610fc1565b9050806109be576040517f08c379a00000000000000000000000000000000000000000000000000000000081526004016109b590610e7f565b60405180910390fd5b813373ffffffffffffffffffffffffffffffffffffffff167fb3ef81558ed1a50072a492984535a009da8b129c749500b387f1e5f4886bdde560405160405180910390a35050565b600047905090565b6000600260003373ffffffffffffffffffffffffffffffffffffffff1673ffffffffffffffffffffffffffffffffffffffff16815260200190815260200160002054905090565b60016020528060005260406000206000915090505481565b60003411610ab0576040517f08c379a0000000000000000000000000000000000000000000000000000000008152600401610aa79061107d565b60405180910390fd5b34600160003373ffffffffffffffffffffffffffffffffffffffff1673ffffffffffffffffffffffffffffffffffffffff16815260200190815260200160002054610afb91906110fa565b600160003373ffffffffffffffffffffffffffffffffffffffff1673ffffffffffffffffffffffffffffffffffffffff16815260200190815260200160002081905550343373ffffffffffffffffffffffffffffffffffffffff167fb3ef81558ed1a50072a492984535a009da8b129c749500b387f1e5f4886bdde560405160405180910390a3565b6000819050919050565b610b9781610b84565b82525050565b6000602082019050610bb26000830184610b8e565b92915050565b600080fd5b610bc681610b84565b8114610bd157600080fd5b50565b600081359050610be381610bbd565b92915050565b600060208284031215610bff57610bfe610bb8565b5b6000610c0d84828501610bd4565b91505092915050565b600073ffffffffffffffffffffffffffffffffffffffff82169050919050565b6000610c4182610c16565b9050919050565b610c5181610c36565b8114610c5c57600080fd5b50565b600081359050610c6e81610c48565b92915050565b600060208284031215610c8a57610c89610bb8565b5b6000610c9884828501610c5f565b91505092915050565b600082825260208201905092915050565b7f41646472657373207a65726f2064657465637465640000000000000000000000600082015250565b6000610ce8601583610ca1565b9150610cf382610cb2565b602082019050919050565b60006020820190508181036000830152610d1781610cdb565b9050919050565b7f496e73756666696369656e742066756e64730000000000000000000000000000600082015250565b6000610d54601283610ca1565b9150610d5f82610d1e565b602082019050919050565b60006020820190508181036000830152610d8381610d47565b9050919050565b7f4e487b7100000000000000000000000000000000000000000000000000000000600052601160045260246000fd5b6000610dc482610b84565b9150610dcf83610b84565b9250828203905081811115610de757610de6610d8a565b5b92915050565b600081905092915050565b50565b6000610e08600083610ded565b9150610e1382610df8565b600082019050919050565b6000610e2982610dfb565b9150819050919050565b7f7472616e73666572206661696c65640000000000000000000000000000000000600082015250565b6000610e69600f83610ca1565b9150610e7482610e33565b602082019050919050565b60006020820190508181036000830152610e9881610e5c565b9050919050565b600081519050919050565b600082825260208201905092915050565b60005b83811015610ed9578082015181840152602081019050610ebe565b60008484015250505050565b6000601f19601f8301169050919050565b6000610f0182610e9f565b610f0b8185610eaa565b9350610f1b818560208601610ebb565b610f2481610ee5565b840191505092915050565b60006020820190508181036000830152610f498184610ef6565b905092915050565b610f5a81610c36565b82525050565b6000604082019050610f756000830185610f51565b610f826020830184610b8e565b9392505050565b60008115159050919050565b610f9e81610f89565b8114610fa957600080fd5b50565b600081519050610fbb81610f95565b92915050565b600060208284031215610fd757610fd6610bb8565b5b6000610fe584828501610fac565b91505092915050565b6000610ffb600083610eaa565b915061100682610df8565b600082019050919050565b6000602082019050818103600083015261102a81610fee565b9050919050565b7f43616e2774206465706f736974207a65726f2076616c75650000000000000000600082015250565b6000611067601883610ca1565b915061107282611031565b602082019050919050565b600060208201905081810360008301526110968161105a565b9050919050565b60006020820190506110b26000830184610f51565b92915050565b6000815190506110c781610bbd565b92915050565b6000602082840312156110e3576110e2610bb8565b5b60006110f1848285016110b8565b91505092915050565b600061110582610b84565b915061111083610b84565b925082820190508082111561112857611127610d8a565b5b92915050565b60006060820190506111436000830186610f51565b6111506020830185610f51565b61115d6040830184610b8e565b94935050505056fea264697066735822122046e19e6dc67149657802d79ef935b4fe52c9cdebe5229497102ec1f4b2c29ce464736f6c634300081e0033",
  "linkReferences": {},
  "deployedLinkReferences": {}
}