{
  "_format": "hh-sol-artifact-1",
  "contractName": "SchoolManagement",
  "sourceName": "contracts/SchoolManagement.sol",
  "abi": [
    {
      "inputs": [
        {
          "internalType": "address",
          "name": "_token",
          "type": "address"
        },
        {
          "internalType": "uint256[4]",
          "name": "fees",
          "type": "uint256[4]"
        }
      ],
      "stateMutability": "nonpayable",
      "type": "constructor"
    },
    {
      "anonymous": false,
      "inputs": [
        {
          "indexed": false,
          "internalType": "uint256",
          "name": "_studentId",
          "type": "uint256"
        },
        {
          "indexed": false,
          "internalType": "uint256",
          "name": "_amount",
          "type": "uint256"
        },
        {
          "indexed": false,
          "internalType": "uint256",
          "name": "timestamp",
          "type": "uint256"
        }
      ],
      "name": "FeePaid",
      "type": "event"
    },
    {
      "anonymous": false,
      "inputs": [
        {
          "indexed": false,
          "internalType": "enum SchoolManagement.Level",
          "name": "level",
          "type": "uint8"
        },
        {
          "indexed": false,
          "internalType": "uint256",
          "name": "newFee",
          "type": "uint256"
        }
      ],
      "name": "LevelFeeUpdated",
      "type": "event"
    },
    {
      "anonymous": false,
      "inputs": [
        {
          "indexed": false,
          "internalType": "uint256",
          "name": "_staffId",
          "type": "uint256"
        },
        {
          "indexed": false,
          "internalType": "uint256",
          "name": "_amount",
          "type": "uint256"
        },
        {
          "indexed": false,
          "internalType": "uint256",
          "name": "timestamp",
          "type": "uint256"
        }
      ],
      "name": "SalaryPaid",
      "type": "event"
    },
    {
      "anonymous": false,
      "inputs": [
        {
          "indexed": true,
          "internalType": "uint256",
          "name": "_staffId",
          "type": "uint256"
        },
        {
          "indexed": true,
          "internalType": "address",
          "name": "_walletAddress",
          "type": "address"
        },
        {
          "indexed": false,
          "internalType": "string",
          "name": "_staffName",
          "type": "string"
        },
        {
          "indexed": false,
          "internalType": "uint256",
          "name": "_salary",
          "type": "uint256"
        }
      ],
      "name": "StaffRegistered",
      "type": "event"
    },
    {
      "anonymous": false,
      "inputs": [
        {
          "indexed": true,
          "internalType": "uint256",
          "name": "_studentId",
          "type": "uint256"
        },
        {
          "indexed": true,
          "internalType": "address",
          "name": "_walletAddress",
          "type": "address"
        },
        {
          "indexed": false,
          "internalType": "string",
          "name": "_studentName",
          "type": "string"
        },
        {
          "indexed": false,
          "internalType": "enum SchoolManagement.Level",
          "name": "_level",
          "type": "uint8"
        }
      ],
      "name": "StudentRegistered",
      "type": "event"
    },
    {
      "inputs": [
        {
          "internalType": "uint256",
          "name": "",
          "type": "uint256"
        }
      ],
      "name": "allStaffs",
      "outputs": [
        {
          "internalType": "uint256",
          "name": "id",
          "type": "uint256"
        },
        {
          "internalType": "string",
          "name": "name",
          "type": "string"
        },
        {
          "internalType": "address",
          "name": "wallet",
          "type": "address"
        },
        {
          "internalType": "uint256",
          "name": "salary",
          "type": "uint256"
        },
        {
          "internalType": "uint256",
          "name": "paidAt",
          "type": "uint256"
        }
      ],
      "stateMutability": "view",
      "type": "function"
    },
    {
      "inputs": [],
      "name": "contractTokenBalance",
      "outputs": [
        {
          "internalType": "uint256",
          "name": "",
          "type": "uint256"
        }
      ],
      "stateMutability": "view",
      "type": "function"
    },
    {
      "inputs": [],
      "name": "getAllStaff",
      "outputs": [
        {
          "components": [
            {
              "internalType": "uint256",
              "name": "id",
              "type": "uint256"
            },
            {
              "internalType": "string",
              "name": "name",
              "type": "string"
            },
            {
              "internalType": "address",
              "name": "wallet",
              "type": "address"
            },
            {
              "internalType": "uint256",
              "name": "salary",
              "type": "uint256"
            },
            {
              "internalType": "uint256",
              "name": "paidAt",
              "type": "uint256"
            }
          ],
          "internalType": "struct SchoolManagement.Staff[]",
          "name": "",
          "type": "tuple[]"
        }
      ],
      "stateMutability": "view",
      "type": "function"
    },
    {
      "inputs": [
        {
          "internalType": "uint256",
          "name": "_id",
          "type": "uint256"
        }
      ],
      "name": "getStudent",
      "outputs": [
        {
          "components": [
            {
              "internalType": "uint256",
              "name": "id",
              "type": "uint256"
            },
            {
              "internalType": "string",
              "name": "name",
              "type": "string"
            },
            {
              "internalType": "address",
              "name": "wallet",
              "type": "address"
            },
            {
              "internalType": "enum SchoolManagement.Level",
              "name": "level",
              "type": "uint8"
            },
            {
              "internalType": "bool",
              "name": "paid",
              "type": "bool"
            },
            {
              "internalType": "uint256",
              "name": "paidAt",
              "type": "uint256"
            }
          ],
          "internalType": "struct SchoolManagement.Student",
          "name": "",
          "type": "tuple"
        }
      ],
      "stateMutability": "view",
      "type": "function"
    },
    {
      "inputs": [
        {
          "internalType": "enum SchoolManagement.Level",
          "name": "",
          "type": "uint8"
        }
      ],
      "name": "levelFees",
      "outputs": [
        {
          "internalType": "uint256",
          "name": "",
          "type": "uint256"
        }
      ],
      "stateMutability": "view",
      "type": "function"
    },
    {
      "inputs": [],
      "name": "owner",
      "outputs": [
        {
          "internalType": "address",
          "name": "",
          "type": "address"
        }
      ],
      "stateMutability": "view",
      "type": "function"
    },
    {
      "inputs": [
        {
          "internalType": "uint256",
          "name": "_staffId",
          "type": "uint256"
        }
      ],
      "name": "paySalary",
      "outputs": [],
      "stateMutability": "nonpayable",
      "type": "function"
    },
    {
      "inputs": [
        {
          "internalType": "string",
          "name": "_name",
          "type": "string"
        },
        {
          "internalType": "address",
          "name": "_wallet",
          "type": "address"
        },
        {
          "internalType": "uint256",
          "name": "_salary",
          "type": "uint256"
        }
      ],
      "name": "registerStaff",
      "outputs": [
        {
          "internalType": "uint256",
          "name": "id",
          "type": "uint256"
        }
      ],
      "stateMutability": "nonpayable",
      "type": "function"
    },
    {
      "inputs": [
        {
          "internalType": "string",
          "name": "_name",
          "type": "string"
        },
        {
          "internalType": "enum SchoolManagement.Level",
          "name": "_level",
          "type": "uint8"
        }
      ],
      "name": "registerSudent",
      "outputs": [
        {
          "internalType": "uint256",
          "name": "id",
          "type": "uint256"
        }
      ],
      "stateMutability": "nonpayable",
      "type": "function"
    },
    {
      "inputs": [],
      "name": "staffCount",
      "outputs": [
        {
          "internalType": "uint256",
          "name": "",
          "type": "uint256"
        }
      ],
      "stateMutability": "view",
      "type": "function"
    },
    {
      "inputs": [
        {
          "internalType": "uint256",
          "name": "",
          "type": "uint256"
        }
      ],
      "name": "staffs",
      "outputs": [
        {
          "internalType": "uint256",
          "name": "id",
          "type": "uint256"
        },
        {
          "internalType": "string",
          "name": "name",
          "type": "string"
        },
        {
          "internalType": "address",
          "name": "wallet",
          "type": "address"
        },
        {
          "internalType": "uint256",
          "name": "salary",
          "type": "uint256"
        },
        {
          "internalType": "uint256",
          "name": "paidAt",
          "type": "uint256"
        }
      ],
      "stateMutability": "view",
      "type": "function"
    },
    {
      "inputs": [],
      "name": "studentCount",
      "outputs": [
        {
          "internalType": "uint256",
          "name": "",
          "type": "uint256"
        }
      ],
      "stateMutability": "view",
      "type": "function"
    },
    {
      "inputs": [
        {
          "internalType": "uint256",
          "name": "",
          "type": "uint256"
        }
      ],
      "name": "students",
      "outputs": [
        {
          "internalType": "uint256",
          "name": "id",
          "type": "uint256"
        },
        {
          "internalType": "string",
          "name": "name",
          "type": "string"
        },
        {
          "internalType": "address",
          "name": "wallet",
          "type": "address"
        },
        {
          "internalType": "enum SchoolManagement.Level",
          "name": "level",
          "type": "uint8"
        },
        {
          "internalType": "bool",
          "name": "paid",
          "type": "bool"
        },
        {
          "internalType": "uint256",
          "name": "paidAt",
          "type": "uint256"
        }
      ],
      "stateMutability": "view",
      "type": "function"
    },
    {
      "inputs": [],
      "name": "token",
      "outputs": [
        {
          "internalType": "address",
          "name": "",
          "type": "address"
        }
      ],
      "stateMutability": "view",
      "type": "function"
    }
  ],
  "bytecode": "0x608060405234801561001057600080fd5b50604051612c09380380612c0983398181016040528101906100329190610475565b336000806101000a81548173ffffffffffffffffffffffffffffffffffffffff021916908373ffffffffffffffffffffffffffffffffffffffff160217905550600073ffffffffffffffffffffffffffffffffffffffff168273ffffffffffffffffffffffffffffffffffffffff16036100e1576040517f08c379a00000000000000000000000000000000000000000000000000000000081526004016100d890610512565b60405180910390fd5b81600160006101000a81548173ffffffffffffffffffffffffffffffffffffffff021916908373ffffffffffffffffffffffffffffffffffffffff1602179055508060006004811061013657610135610532565b5b60200201516004600080600381111561015257610151610561565b5b600381111561016457610163610561565b5b8152602001908152602001600020819055508060016004811061018a57610189610532565b5b602002015160046000600160038111156101a7576101a6610561565b5b60038111156101b9576101b8610561565b5b815260200190815260200160002081905550806002600481106101df576101de610532565b5b602002015160046000600260038111156101fc576101fb610561565b5b600381111561020e5761020d610561565b5b8152602001908152602001600020819055508060036004811061023457610233610532565b5b6020020151600460006003808111156102505761024f610561565b5b600381111561026257610261610561565b5b815260200190815260200160002081905550600160058190555060016006819055505050610590565b6000604051905090565b600080fd5b600073ffffffffffffffffffffffffffffffffffffffff82169050919050565b60006102c58261029a565b9050919050565b6102d5816102ba565b81146102e057600080fd5b50565b6000815190506102f2816102cc565b92915050565b600080fd5b6000601f19601f8301169050919050565b7f4e487b7100000000000000000000000000000000000000000000000000000000600052604160045260246000fd5b610346826102fd565b810181811067ffffffffffffffff821117156103655761036461030e565b5b80604052505050565b600061037861028b565b9050610384828261033d565b919050565b600067ffffffffffffffff8211156103a4576103a361030e565b5b602082029050919050565b600080fd5b6000819050919050565b6103c7816103b4565b81146103d257600080fd5b50565b6000815190506103e4816103be565b92915050565b60006103fd6103f884610389565b61036e565b90508060208402830185811115610417576104166103af565b5b835b81811015610440578061042c88826103d5565b845260208401935050602081019050610419565b5050509392505050565b600082601f83011261045f5761045e6102f8565b5b600461046c8482856103ea565b91505092915050565b60008060a0838503121561048c5761048b610295565b5b600061049a858286016102e3565b92505060206104ab8582860161044a565b9150509250929050565b600082825260208201905092915050565b7f5a65726f20746f6b656e20616464726573730000000000000000000000000000600082015250565b60006104fc6012836104b5565b9150610507826104c6565b602082019050919050565b6000602082019050818103600083015261052b816104ef565b9050919050565b7f4e487b7100000000000000000000000000000000000000000000000000000000600052603260045260246000fd5b7f4e487b7100000000000000000000000000000000000000000000000000000000600052602160045260246000fd5b61266a8061059f6000396000f3fe608060405234801561001057600080fd5b50600436106100ea5760003560e01c8063642f91631161008c578063ce06616311610066578063ce0661631461027c578063e581f9ee146102ac578063fba07a02146102ca578063fc0c546a146102fe576100ea565b8063642f9163146102105780638da5cb5b146102405780639e9aed621461025e576100ea565b806333227246116100c8578063332272461461015e57806338dda8491461018e578063498d4707146101ac57806358db29b8146101e0576100ea565b8063032e0868146100ef57806306ead22e1461010d57806320c4c1e814610142575b600080fd5b6100f761031c565b6040516101049190611815565b60405180910390f35b6101276004803603810190610122919061186d565b610481565b60405161013996959493929190611994565b60405180910390f35b61015c6004803603810190610157919061186d565b61057f565b005b61017860048036038101906101739190611a8d565b6108bd565b6040516101859190611b01565b60405180910390f35b610196610bea565b6040516101a39190611b01565b60405180910390f35b6101c660048036038101906101c1919061186d565b610bf0565b6040516101d7959493929190611b1c565b60405180910390f35b6101fa60048036038101906101f59190611b9b565b610cce565b6040516102079190611b01565b60405180910390f35b61022a6004803603810190610225919061186d565b610ce6565b6040516102379190611c6f565b60405180910390f35b610248610e65565b6040516102559190611c91565b60405180910390f35b610266610e89565b6040516102739190611b01565b60405180910390f35b61029660048036038101906102919190611cac565b610f2c565b6040516102a39190611b01565b60405180910390f35b6102b4611479565b6040516102c19190611b01565b60405180910390f35b6102e460048036038101906102df919061186d565b61147f565b6040516102f5959493929190611b1c565b60405180910390f35b61030661156d565b6040516103139190611c91565b60405180910390f35b60606007805480602002602001604051908101604052809291908181526020016000905b8282101561047857838290600052602060002090600502016040518060a00160405290816000820154815260200160018201805461037d90611d3b565b80601f01602080910402602001604051908101604052809291908181526020018280546103a990611d3b565b80156103f65780601f106103cb576101008083540402835291602001916103f6565b820191906000526020600020905b8154815290600101906020018083116103d957829003601f168201915b505050505081526020016002820160009054906101000a900473ffffffffffffffffffffffffffffffffffffffff1673ffffffffffffffffffffffffffffffffffffffff1673ffffffffffffffffffffffffffffffffffffffff1681526020016003820154815260200160048201548152505081526020019060010190610340565b50505050905090565b60026020528060005260406000206000915090508060000154908060010180546104aa90611d3b565b80601f01602080910402602001604051908101604052809291908181526020018280546104d690611d3b565b80156105235780601f106104f857610100808354040283529160200191610523565b820191906000526020600020905b81548152906001019060200180831161050657829003601f168201915b5050505050908060020160009054906101000a900473ffffffffffffffffffffffffffffffffffffffff16908060020160149054906101000a900460ff16908060020160159054906101000a900460ff16908060030154905086565b60008054906101000a900473ffffffffffffffffffffffffffffffffffffffff1673ffffffffffffffffffffffffffffffffffffffff163373ffffffffffffffffffffffffffffffffffffffff161461060d576040517f08c379a000000000000000000000000000000000000000000000000000000000815260040161060490611db8565b60405180910390fd5b600073ffffffffffffffffffffffffffffffffffffffff166003600083815260200190815260200160002060020160009054906101000a900473ffffffffffffffffffffffffffffffffffffffff1673ffffffffffffffffffffffffffffffffffffffff16036106b2576040517f08c379a00000000000000000000000000000000000000000000000000000000081526004016106a990611e24565b60405180910390fd5b60006003600083815260200190815260200160002060020160009054906101000a900473ffffffffffffffffffffffffffffffffffffffff169050600060036000848152602001908152602001600020600301549050600160009054906101000a900473ffffffffffffffffffffffffffffffffffffffff1673ffffffffffffffffffffffffffffffffffffffff166323b872dd3384846040518463ffffffff1660e01b815260040161076793929190611e44565b6020604051808303816000875af1158015610786573d6000803e3d6000fd5b505050506040513d601f19601f820116820180604052508101906107aa9190611ea7565b6107e9576040517f08c379a00000000000000000000000000000000000000000000000000000000081526004016107e090611f20565b60405180910390fd5b42600360008581526020019081526020016000206004018190555060005b60078054905081101561087c57836007828154811061082957610828611f40565b5b9060005260206000209060050201600001540361086f57426007828154811061085557610854611f40565b5b90600052602060002090600502016004018190555061087c565b8080600101915050610807565b507ffe0ba696ce15d2b477007284c7acfee99418b06d2fa57653cad12b78026685418382426040516108b093929190611f6f565b60405180910390a1505050565b60008060009054906101000a900473ffffffffffffffffffffffffffffffffffffffff1673ffffffffffffffffffffffffffffffffffffffff163373ffffffffffffffffffffffffffffffffffffffff161461094e576040517f08c379a000000000000000000000000000000000000000000000000000000000815260040161094590611db8565b60405180910390fd5b600073ffffffffffffffffffffffffffffffffffffffff168373ffffffffffffffffffffffffffffffffffffffff16036109bd576040517f08c379a00000000000000000000000000000000000000000000000000000000081526004016109b490611ff2565b60405180910390fd5b60008585905011610a03576040517f08c379a00000000000000000000000000000000000000000000000000000000081526004016109fa9061205e565b60405180910390fd5b60008211610a46576040517f08c379a0000000000000000000000000000000000000000000000000000000008152600401610a3d906120ca565b60405180910390fd5b60066000815480929190610a5990612119565b91905055905060006040518060a0016040528083815260200187878080601f016020809104026020016040519081016040528093929190818152602001838380828437600081840152601f19601f8201169050808301925050505050505081526020018573ffffffffffffffffffffffffffffffffffffffff168152602001848152602001600081525090506007819080600181540180825580915050600190039060005260206000209060050201600090919091909150600082015181600001556020820151816001019081610b30919061233c565b5060408201518160020160006101000a81548173ffffffffffffffffffffffffffffffffffffffff021916908373ffffffffffffffffffffffffffffffffffffffff160217905550606082015181600301556080820151816004015550508373ffffffffffffffffffffffffffffffffffffffff16827f578baea95862be321dfd413773eab861deb3b3bb10799240895448efdf71ff16888887604051610bd99392919061244a565b60405180910390a350949350505050565b60065481565b6003602052806000526040600020600091509050806000015490806001018054610c1990611d3b565b80601f0160208091040260200160405190810160405280929190818152602001828054610c4590611d3b565b8015610c925780601f10610c6757610100808354040283529160200191610c92565b820191906000526020600020905b815481529060010190602001808311610c7557829003601f168201915b5050505050908060020160009054906101000a900473ffffffffffffffffffffffffffffffffffffffff16908060030154908060040154905085565b60046020528060005260406000206000915090505481565b610cee611593565b600260008381526020019081526020016000206040518060c001604052908160008201548152602001600182018054610d2690611d3b565b80601f0160208091040260200160405190810160405280929190818152602001828054610d5290611d3b565b8015610d9f5780601f10610d7457610100808354040283529160200191610d9f565b820191906000526020600020905b815481529060010190602001808311610d8257829003601f168201915b505050505081526020016002820160009054906101000a900473ffffffffffffffffffffffffffffffffffffffff1673ffffffffffffffffffffffffffffffffffffffff1673ffffffffffffffffffffffffffffffffffffffff1681526020016002820160149054906101000a900460ff166003811115610e2357610e22611902565b5b6003811115610e3557610e34611902565b5b81526020016002820160159054906101000a900460ff161515151581526020016003820154815250509050919050565b60008054906101000a900473ffffffffffffffffffffffffffffffffffffffff1681565b6000600160009054906101000a900473ffffffffffffffffffffffffffffffffffffffff1673ffffffffffffffffffffffffffffffffffffffff166370a08231306040518263ffffffff1660e01b8152600401610ee69190611c91565b602060405180830381865afa158015610f03573d6000803e3d6000fd5b505050506040513d601f19601f82011682018060405250810190610f279190612491565b905090565b6000808484905011610f73576040517f08c379a0000000000000000000000000000000000000000000000000000000008152600401610f6a9061205e565b60405180910390fd5b60056000815480929190610f8690612119565b9190505590506040518060c0016040528082815260200185858080601f016020809104026020016040519081016040528093929190818152602001838380828437600081840152601f19601f8201169050808301925050505050505081526020013373ffffffffffffffffffffffffffffffffffffffff16815260200183600381111561101657611015611902565b5b815260200160001515815260200160008152506002600083815260200190815260200160002060008201518160000155602082015181600101908161105b919061233c565b5060408201518160020160006101000a81548173ffffffffffffffffffffffffffffffffffffffff021916908373ffffffffffffffffffffffffffffffffffffffff16021790555060608201518160020160146101000a81548160ff021916908360038111156110ce576110cd611902565b5b021790555060808201518160020160156101000a81548160ff02191690831515021790555060a082015181600301559050506000600260008381526020019081526020016000209050600073ffffffffffffffffffffffffffffffffffffffff168160020160009054906101000a900473ffffffffffffffffffffffffffffffffffffffff1673ffffffffffffffffffffffffffffffffffffffff16036111aa576040517f08c379a00000000000000000000000000000000000000000000000000000000081526004016111a19061250a565b60405180910390fd5b8060020160159054906101000a900460ff16156111fc576040517f08c379a00000000000000000000000000000000000000000000000000000000081526004016111f390612576565b60405180910390fd5b8060020160009054906101000a900473ffffffffffffffffffffffffffffffffffffffff1673ffffffffffffffffffffffffffffffffffffffff163373ffffffffffffffffffffffffffffffffffffffff161461128e576040517f08c379a0000000000000000000000000000000000000000000000000000000008152600401611285906125e2565b60405180910390fd5b6000600460008360020160149054906101000a900460ff1660038111156112b8576112b7611902565b5b60038111156112ca576112c9611902565b5b8152602001908152602001600020549050600160009054906101000a900473ffffffffffffffffffffffffffffffffffffffff1673ffffffffffffffffffffffffffffffffffffffff166323b872dd3330846040518463ffffffff1660e01b815260040161133a93929190611e44565b6020604051808303816000875af1158015611359573d6000803e3d6000fd5b505050506040513d601f19601f8201168201806040525081019061137d9190611ea7565b6113bc576040517f08c379a00000000000000000000000000000000000000000000000000000000081526004016113b390611f20565b60405180910390fd5b60018260020160156101000a81548160ff0219169083151502179055504282600301819055507f9bec96fb6d100e4d478528377d4ef6e077836973c5de940a41a1e6845229999283824260405161141593929190611f6f565b60405180910390a13373ffffffffffffffffffffffffffffffffffffffff16837f993734723cb780f297c3ef738389b597ab36a7c76f100f6722aa125d18991adf88888860405161146893929190612602565b60405180910390a350509392505050565b60055481565b6007818154811061148f57600080fd5b90600052602060002090600502016000915090508060000154908060010180546114b890611d3b565b80601f01602080910402602001604051908101604052809291908181526020018280546114e490611d3b565b80156115315780601f1061150657610100808354040283529160200191611531565b820191906000526020600020905b81548152906001019060200180831161151457829003601f168201915b5050505050908060020160009054906101000a900473ffffffffffffffffffffffffffffffffffffffff16908060030154908060040154905085565b600160009054906101000a900473ffffffffffffffffffffffffffffffffffffffff1681565b6040518060c001604052806000815260200160608152602001600073ffffffffffffffffffffffffffffffffffffffff168152602001600060038111156115dd576115dc611902565b5b8152602001600015158152602001600081525090565b600081519050919050565b600082825260208201905092915050565b6000819050602082019050919050565b6000819050919050565b6116328161161f565b82525050565b600081519050919050565b600082825260208201905092915050565b60005b83811015611672578082015181840152602081019050611657565b60008484015250505050565b6000601f19601f8301169050919050565b600061169a82611638565b6116a48185611643565b93506116b4818560208601611654565b6116bd8161167e565b840191505092915050565b600073ffffffffffffffffffffffffffffffffffffffff82169050919050565b60006116f3826116c8565b9050919050565b611703816116e8565b82525050565b600060a0830160008301516117216000860182611629565b5060208301518482036020860152611739828261168f565b915050604083015161174e60408601826116fa565b5060608301516117616060860182611629565b5060808301516117746080860182611629565b508091505092915050565b600061178b8383611709565b905092915050565b6000602082019050919050565b60006117ab826115f3565b6117b581856115fe565b9350836020820285016117c78561160f565b8060005b8581101561180357848403895281516117e4858261177f565b94506117ef83611793565b925060208a019950506001810190506117cb565b50829750879550505050505092915050565b6000602082019050818103600083015261182f81846117a0565b905092915050565b600080fd5b600080fd5b61184a8161161f565b811461185557600080fd5b50565b60008135905061186781611841565b92915050565b60006020828403121561188357611882611837565b5b600061189184828501611858565b91505092915050565b6118a38161161f565b82525050565b600082825260208201905092915050565b60006118c582611638565b6118cf81856118a9565b93506118df818560208601611654565b6118e88161167e565b840191505092915050565b6118fc816116e8565b82525050565b7f4e487b7100000000000000000000000000000000000000000000000000000000600052602160045260246000fd5b6004811061194257611941611902565b5b50565b600081905061195382611931565b919050565b600061196382611945565b9050919050565b61197381611958565b82525050565b60008115159050919050565b61198e81611979565b82525050565b600060c0820190506119a9600083018961189a565b81810360208301526119bb81886118ba565b90506119ca60408301876118f3565b6119d7606083018661196a565b6119e46080830185611985565b6119f160a083018461189a565b979650505050505050565b600080fd5b600080fd5b600080fd5b60008083601f840112611a2157611a206119fc565b5b8235905067ffffffffffffffff811115611a3e57611a3d611a01565b5b602083019150836001820283011115611a5a57611a59611a06565b5b9250929050565b611a6a816116e8565b8114611a7557600080fd5b50565b600081359050611a8781611a61565b92915050565b60008060008060608587031215611aa757611aa6611837565b5b600085013567ffffffffffffffff811115611ac557611ac461183c565b5b611ad187828801611a0b565b94509450506020611ae487828801611a78565b9250506040611af587828801611858565b91505092959194509250565b6000602082019050611b16600083018461189a565b92915050565b600060a082019050611b31600083018861189a565b8181036020830152611b4381876118ba565b9050611b5260408301866118f3565b611b5f606083018561189a565b611b6c608083018461189a565b9695505050505050565b60048110611b8357600080fd5b50565b600081359050611b9581611b76565b92915050565b600060208284031215611bb157611bb0611837565b5b6000611bbf84828501611b86565b91505092915050565b611bd181611958565b82525050565b611be081611979565b82525050565b600060c083016000830151611bfe6000860182611629565b5060208301518482036020860152611c16828261168f565b9150506040830151611c2b60408601826116fa565b506060830151611c3e6060860182611bc8565b506080830151611c516080860182611bd7565b5060a0830151611c6460a0860182611629565b508091505092915050565b60006020820190508181036000830152611c898184611be6565b905092915050565b6000602082019050611ca660008301846118f3565b92915050565b600080600060408486031215611cc557611cc4611837565b5b600084013567ffffffffffffffff811115611ce357611ce261183c565b5b611cef86828701611a0b565b93509350506020611d0286828701611b86565b9150509250925092565b7f4e487b7100000000000000000000000000000000000000000000000000000000600052602260045260246000fd5b60006002820490506001821680611d5357607f821691505b602082108103611d6657611d65611d0c565b5b50919050565b7f4f6e6c79204f776e657200000000000000000000000000000000000000000000600082015250565b6000611da2600a836118a9565b9150611dad82611d6c565b602082019050919050565b60006020820190508181036000830152611dd181611d95565b9050919050565b7f5374616666206e6f7420666f756e640000000000000000000000000000000000600082015250565b6000611e0e600f836118a9565b9150611e1982611dd8565b602082019050919050565b60006020820190508181036000830152611e3d81611e01565b9050919050565b6000606082019050611e5960008301866118f3565b611e6660208301856118f3565b611e73604083018461189a565b949350505050565b611e8481611979565b8114611e8f57600080fd5b50565b600081519050611ea181611e7b565b92915050565b600060208284031215611ebd57611ebc611837565b5b6000611ecb84828501611e92565b91505092915050565b7f5061796d656e74206661696c6564000000000000000000000000000000000000600082015250565b6000611f0a600e836118a9565b9150611f1582611ed4565b602082019050919050565b60006020820190508181036000830152611f3981611efd565b9050919050565b7f4e487b7100000000000000000000000000000000000000000000000000000000600052603260045260246000fd5b6000606082019050611f84600083018661189a565b611f91602083018561189a565b611f9e604083018461189a565b949350505050565b7f5a65726f2077616c6c6574206164647265737300000000000000000000000000600082015250565b6000611fdc6013836118a9565b9150611fe782611fa6565b602082019050919050565b6000602082019050818103600083015261200b81611fcf565b9050919050565b7f456d707479206e616d6500000000000000000000000000000000000000000000600082015250565b6000612048600a836118a9565b915061205382612012565b602082019050919050565b600060208201905081810360008301526120778161203b565b9050919050565b7f53616c617279203e203000000000000000000000000000000000000000000000600082015250565b60006120b4600a836118a9565b91506120bf8261207e565b602082019050919050565b600060208201905081810360008301526120e3816120a7565b9050919050565b7f4e487b7100000000000000000000000000000000000000000000000000000000600052601160045260246000fd5b60006121248261161f565b91507fffffffffffffffffffffffffffffffffffffffffffffffffffffffffffffffff8203612156576121556120ea565b5b600182019050919050565b7f4e487b7100000000000000000000000000000000000000000000000000000000600052604160045260246000fd5b60008190508160005260206000209050919050565b60006020601f8301049050919050565b600082821b905092915050565b6000600883026121f27fffffffffffffffffffffffffffffffffffffffffffffffffffffffffffffffff826121b5565b6121fc86836121b5565b95508019841693508086168417925050509392505050565b6000819050919050565b600061223961223461222f8461161f565b612214565b61161f565b9050919050565b6000819050919050565b6122538361221e565b61226761225f82612240565b8484546121c2565b825550505050565b600090565b61227c61226f565b61228781848461224a565b505050565b5b818110156122ab576122a0600082612274565b60018101905061228d565b5050565b601f8211156122f0576122c181612190565b6122ca846121a5565b810160208510156122d9578190505b6122ed6122e5856121a5565b83018261228c565b50505b505050565b600082821c905092915050565b6000612313600019846008026122f5565b1980831691505092915050565b600061232c8383612302565b9150826002028217905092915050565b61234582611638565b67ffffffffffffffff81111561235e5761235d612161565b5b6123688254611d3b565b6123738282856122af565b600060209050601f8311600181146123a65760008415612394578287015190505b61239e8582612320565b865550612406565b601f1984166123b486612190565b60005b828110156123dc578489015182556001820191506020850194506020810190506123b7565b868310156123f957848901516123f5601f891682612302565b8355505b6001600288020188555050505b505050505050565b82818337600083830152505050565b600061242983856118a9565b935061243683858461240e565b61243f8361167e565b840190509392505050565b6000604082019050818103600083015261246581858761241d565b9050612474602083018461189a565b949350505050565b60008151905061248b81611841565b92915050565b6000602082840312156124a7576124a6611837565b5b60006124b58482850161247c565b91505092915050565b7f53747564656e74206e6f7420666f756e64000000000000000000000000000000600082015250565b60006124f46011836118a9565b91506124ff826124be565b602082019050919050565b60006020820190508181036000830152612523816124e7565b9050919050565b7f416c726561647920706169640000000000000000000000000000000000000000600082015250565b6000612560600c836118a9565b915061256b8261252a565b602082019050919050565b6000602082019050818103600083015261258f81612553565b9050919050565b7f4e6f742073747564656e74000000000000000000000000000000000000000000600082015250565b60006125cc600b836118a9565b91506125d782612596565b602082019050919050565b600060208201905081810360008301526125fb816125bf565b9050919050565b6000604082019050818103600083015261261d81858761241d565b905061262c602083018461196a565b94935050505056fea2646970667358221220baa3aea68ab62d5f96958215524cb63a1bd1f149988e45b0181581a4c43e6cb764736f6c634300081e0033",
  "linkReferences": {},
  "deployedLinkReferences": {}
}