{
  "_format": "hh-sol-artifact-1",
  "contractName": "Todo",
  "sourceName": "contracts/Todo.sol",
  "abi": [
    {
      "inputs": [
        {
          "internalType": "string",
          "name": "_title",
          "type": "string"
        }
      ],
      "name": "createTask",
      "outputs": [],
      "stateMutability": "nonpayable",
      "type": "function"
    },
    {
      "inputs": [
        {
          "internalType": "uint8",
          "name": "_id",
          "type": "uint8"
        }
      ],
      "name": "deleteTask",
      "outputs": [],
      "stateMutability": "nonpayable",
      "type": "function"
    },
    {
      "inputs": [],
      "name": "getAllTasks",
      "outputs": [
        {
          "components": [
            {
              "internalType": "uint8",
              "name": "id",
              "type": "uint8"
            },
            {
              "internalType": "string",
              "name": "title",
              "type": "string"
            },
            {
              "internalType": "bool",
              "name": "isComplete",
              "type": "bool"
            },
            {
              "internalType": "uint256",
              "name": "timeCompleted",
              "type": "uint256"
            }
          ],
          "internalType": "struct Todo.Task[]",
          "name": "",
          "type": "tuple[]"
        }
      ],
      "stateMutability": "view",
      "type": "function"
    },
    {
      "inputs": [
        {
          "internalType": "uint8",
          "name": "_id",
          "type": "uint8"
        }
      ],
      "name": "markComplete",
      "outputs": [],
      "stateMutability": "nonpayable",
      "type": "function"
    },
    {
      "inputs": [
        {
          "internalType": "uint256",
          "name": "",
          "type": "uint256"
        }
      ],
      "name": "tasks",
      "outputs": [
        {
          "internalType": "uint8",
          "name": "id",
          "type": "uint8"
        },
        {
          "internalType": "string",
          "name": "title",
          "type": "string"
        },
        {
          "internalType": "bool",
          "name": "isComplete",
          "type": "bool"
        },
        {
          "internalType": "uint256",
          "name": "timeCompleted",
          "type": "uint256"
        }
      ],
      "stateMutability": "view",
      "type": "function"
    },
    {
      "inputs": [
        {
          "internalType": "uint8",
          "name": "_id",
          "type": "uint8"
        },
        {
          "internalType": "string",
          "name": "_title",
          "type": "string"
        }
      ],
      "name": "updateTask",
      "outputs": [],
      "stateMutability": "nonpayable",
      "type": "function"
    }
  ],
  "bytecode": "0x6080604052348015600f57600080fd5b506112848061001f6000396000f3fe608060405234801561001057600080fd5b50600436106100625760003560e01c8063111002aa14610067578063779900b41461008357806383de1242146100a15780638d977672146100bd578063c3d081f5146100f0578063db6e1d321461010c575b600080fd5b610081600480360381019061007c9190610923565b610128565b005b61008b61022b565b6040516100989190610b60565b60405180910390f35b6100bb60048036038101906100b69190610bae565b61035e565b005b6100d760048036038101906100d29190610c07565b610439565b6040516100e79493929190610cab565b60405180910390f35b61010a60048036038101906101059190610bae565b61051b565b005b61012660048036038101906101219190610cf7565b6106c8565b005b60018060009054906101000a900460ff166101439190610d82565b600160006101000a81548160ff021916908360ff16021790555060006040518060800160405280600160009054906101000a900460ff1660ff16815260200183815260200160001515815260200160008152509050600081908060018154018082558091505060019003906000526020600020906004020160009091909190915060008201518160000160006101000a81548160ff021916908360ff16021790555060208201518160010190816101fa9190610fc3565b5060408201518160020160006101000a81548160ff0219169083151502179055506060820151816003015550505050565b60606000805480602002602001604051908101604052809291908181526020016000905b8282101561035557838290600052602060002090600402016040518060800160405290816000820160009054906101000a900460ff1660ff1660ff16815260200160018201805461029f90610de6565b80601f01602080910402602001604051908101604052809291908181526020018280546102cb90610de6565b80156103185780601f106102ed57610100808354040283529160200191610318565b820191906000526020600020905b8154815290600101906020018083116102fb57829003601f168201915b505050505081526020016002820160009054906101000a900460ff161515151581526020016003820154815250508152602001906001019061024f565b50505050905090565b60005b6000805490508160ff161015610435578160ff1660008260ff168154811061038c5761038b611095565b5b906000526020600020906004020160000160009054906101000a900460ff1660ff160361042257600160008260ff16815481106103cc576103cb611095565b5b906000526020600020906004020160020160006101000a81548160ff0219169083151502179055504260008260ff168154811061040c5761040b611095565b5b9060005260206000209060040201600301819055505b808061042d906110c4565b915050610361565b5050565b6000818154811061044957600080fd5b90600052602060002090600402016000915090508060000160009054906101000a900460ff169080600101805461047f90610de6565b80601f01602080910402602001604051908101604052809291908181526020018280546104ab90610de6565b80156104f85780601f106104cd576101008083540402835291602001916104f8565b820191906000526020600020905b8154815290600101906020018083116104db57829003601f168201915b5050505050908060020160009054906101000a900460ff16908060030154905084565b60005b6000805490508160ff1610156106c4578160ff1660008260ff168154811061054957610548611095565b5b906000526020600020906004020160000160009054906101000a900460ff1660ff16036106b1576000600160008054905061058491906110ed565b8154811061059557610594611095565b5b906000526020600020906004020160008260ff16815481106105ba576105b9611095565b5b90600052602060002090600402016000820160009054906101000a900460ff168160000160006101000a81548160ff021916908360ff1602179055506001820181600101908161060a9190611137565b506002820160009054906101000a900460ff168160020160006101000a81548160ff0219169083151502179055506003820154816003015590505060008054806106575761065661121f565b5b6001900381819060005260206000209060040201600080820160006101000a81549060ff0219169055600182016000610690919061076c565b6002820160006101000a81549060ff02191690556003820160009055505090555b80806106bc906110c4565b91505061051e565b5050565b60005b6000805490508160ff161015610767578260ff1660008260ff16815481106106f6576106f5611095565b5b906000526020600020906004020160000160009054906101000a900460ff1660ff1603610754578160008260ff168154811061073557610734611095565b5b906000526020600020906004020160010190816107529190610fc3565b505b808061075f906110c4565b9150506106cb565b505050565b50805461077890610de6565b6000825580601f1061078a57506107a9565b601f0160209004906000526020600020908101906107a891906107ac565b5b50565b5b808211156107c55760008160009055506001016107ad565b5090565b6000604051905090565b600080fd5b600080fd5b600080fd5b600080fd5b6000601f19601f8301169050919050565b7f4e487b7100000000000000000000000000000000000000000000000000000000600052604160045260246000fd5b610830826107e7565b810181811067ffffffffffffffff8211171561084f5761084e6107f8565b5b80604052505050565b60006108626107c9565b905061086e8282610827565b919050565b600067ffffffffffffffff82111561088e5761088d6107f8565b5b610897826107e7565b9050602081019050919050565b82818337600083830152505050565b60006108c66108c184610873565b610858565b9050828152602081018484840111156108e2576108e16107e2565b5b6108ed8482856108a4565b509392505050565b600082601f83011261090a576109096107dd565b5b813561091a8482602086016108b3565b91505092915050565b600060208284031215610939576109386107d3565b5b600082013567ffffffffffffffff811115610957576109566107d8565b5b610963848285016108f5565b91505092915050565b600081519050919050565b600082825260208201905092915050565b6000819050602082019050919050565b600060ff82169050919050565b6109ae81610998565b82525050565b600081519050919050565b600082825260208201905092915050565b60005b838110156109ee5780820151818401526020810190506109d3565b60008484015250505050565b6000610a05826109b4565b610a0f81856109bf565b9350610a1f8185602086016109d0565b610a28816107e7565b840191505092915050565b60008115159050919050565b610a4881610a33565b82525050565b6000819050919050565b610a6181610a4e565b82525050565b6000608083016000830151610a7f60008601826109a5565b5060208301518482036020860152610a9782826109fa565b9150506040830151610aac6040860182610a3f565b506060830151610abf6060860182610a58565b508091505092915050565b6000610ad68383610a67565b905092915050565b6000602082019050919050565b6000610af68261096c565b610b008185610977565b935083602082028501610b1285610988565b8060005b85811015610b4e5784840389528151610b2f8582610aca565b9450610b3a83610ade565b925060208a01995050600181019050610b16565b50829750879550505050505092915050565b60006020820190508181036000830152610b7a8184610aeb565b905092915050565b610b8b81610998565b8114610b9657600080fd5b50565b600081359050610ba881610b82565b92915050565b600060208284031215610bc457610bc36107d3565b5b6000610bd284828501610b99565b91505092915050565b610be481610a4e565b8114610bef57600080fd5b50565b600081359050610c0181610bdb565b92915050565b600060208284031215610c1d57610c1c6107d3565b5b6000610c2b84828501610bf2565b91505092915050565b610c3d81610998565b82525050565b600082825260208201905092915050565b6000610c5f826109b4565b610c698185610c43565b9350610c798185602086016109d0565b610c82816107e7565b840191505092915050565b610c9681610a33565b82525050565b610ca581610a4e565b82525050565b6000608082019050610cc06000830187610c34565b8181036020830152610cd28186610c54565b9050610ce16040830185610c8d565b610cee6060830184610c9c565b95945050505050565b60008060408385031215610d0e57610d0d6107d3565b5b6000610d1c85828601610b99565b925050602083013567ffffffffffffffff811115610d3d57610d3c6107d8565b5b610d49858286016108f5565b9150509250929050565b7f4e487b7100000000000000000000000000000000000000000000000000000000600052601160045260246000fd5b6000610d8d82610998565b9150610d9883610998565b9250828201905060ff811115610db157610db0610d53565b5b92915050565b7f4e487b7100000000000000000000000000000000000000000000000000000000600052602260045260246000fd5b60006002820490506001821680610dfe57607f821691505b602082108103610e1157610e10610db7565b5b50919050565b60008190508160005260206000209050919050565b60006020601f8301049050919050565b600082821b905092915050565b600060088302610e797fffffffffffffffffffffffffffffffffffffffffffffffffffffffffffffffff82610e3c565b610e838683610e3c565b95508019841693508086168417925050509392505050565b6000819050919050565b6000610ec0610ebb610eb684610a4e565b610e9b565b610a4e565b9050919050565b6000819050919050565b610eda83610ea5565b610eee610ee682610ec7565b848454610e49565b825550505050565b600090565b610f03610ef6565b610f0e818484610ed1565b505050565b5b81811015610f3257610f27600082610efb565b600181019050610f14565b5050565b601f821115610f7757610f4881610e17565b610f5184610e2c565b81016020851015610f60578190505b610f74610f6c85610e2c565b830182610f13565b50505b505050565b600082821c905092915050565b6000610f9a60001984600802610f7c565b1980831691505092915050565b6000610fb38383610f89565b9150826002028217905092915050565b610fcc826109b4565b67ffffffffffffffff811115610fe557610fe46107f8565b5b610fef8254610de6565b610ffa828285610f36565b600060209050601f83116001811461102d576000841561101b578287015190505b6110258582610fa7565b86555061108d565b601f19841661103b86610e17565b60005b828110156110635784890151825560018201915060208501945060208101905061103e565b86831015611080578489015161107c601f891682610f89565b8355505b6001600288020188555050505b505050505050565b7f4e487b7100000000000000000000000000000000000000000000000000000000600052603260045260246000fd5b60006110cf82610998565b915060ff82036110e2576110e1610d53565b5b600182019050919050565b60006110f882610a4e565b915061110383610a4e565b925082820390508181111561111b5761111a610d53565b5b92915050565b60008154905061113081610de6565b9050919050565b81810361114557505061121d565b61114e82611121565b67ffffffffffffffff811115611167576111666107f8565b5b6111718254610de6565b61117c828285610f36565b6000601f8311600181146111ab5760008415611199578287015490505b6111a38582610fa7565b865550611216565b601f1984166111b987610e17565b96506111c486610e17565b60005b828110156111ec578489015482556001820191506001850194506020810190506111c7565b868310156112095784890154611205601f891682610f89565b8355505b6001600288020188555050505b5050505050505b565b7f4e487b7100000000000000000000000000000000000000000000000000000000600052603160045260246000fdfea2646970667358221220e621b39cd79ea0597cfe014bf800b0f1b16b62bf196cdedeb832437e6fbc844864736f6c634300081e0033",
  "linkReferences": {},
  "deployedLinkReferences": {}
}