{
  "_format": "hh-sol-artifact-1",
  "contractName": "ERC20",
  "sourceName": "contracts/ERC20.sol",
  "abi": [
    {
      "inputs": [
        {
          "internalType": "string",
          "name": "_name",
          "type": "string"
        },
        {
          "internalType": "string",
          "name": "_symbol",
          "type": "string"
        },
        {
          "internalType": "uint8",
          "name": "_decimals",
          "type": "uint8"
        },
        {
          "internalType": "uint256",
          "name": "_totalSupply",
          "type": "uint256"
        }
      ],
      "stateMutability": "nonpayable",
      "type": "constructor"
    },
    {
      "anonymous": false,
      "inputs": [
        {
          "indexed": true,
          "internalType": "address",
          "name": "_owner",
          "type": "address"
        },
        {
          "indexed": true,
          "internalType": "address",
          "name": "_spender",
          "type": "address"
        },
        {
          "indexed": false,
          "internalType": "uint256",
          "name": "_value",
          "type": "uint256"
        }
      ],
      "name": "Approval",
      "type": "event"
    },
    {
      "anonymous": false,
      "inputs": [
        {
          "indexed": true,
          "internalType": "address",
          "name": "_from",
          "type": "address"
        },
        {
          "indexed": true,
          "internalType": "address",
          "name": "_to",
          "type": "address"
        },
        {
          "indexed": false,
          "internalType": "uint256",
          "name": "_value",
          "type": "uint256"
        }
      ],
      "name": "Transfer",
      "type": "event"
    },
    {
      "inputs": [
        {
          "internalType": "address",
          "name": "",
          "type": "address"
        },
        {
          "internalType": "address",
          "name": "",
          "type": "address"
        }
      ],
      "name": "_allowances",
      "outputs": [
        {
          "internalType": "uint256",
          "name": "",
          "type": "uint256"
        }
      ],
      "stateMutability": "view",
      "type": "function"
    },
    {
      "inputs": [
        {
          "internalType": "address",
          "name": "",
          "type": "address"
        }
      ],
      "name": "_balances",
      "outputs": [
        {
          "internalType": "uint256",
          "name": "",
          "type": "uint256"
        }
      ],
      "stateMutability": "view",
      "type": "function"
    },
    {
      "inputs": [
        {
          "internalType": "address",
          "name": "_owner",
          "type": "address"
        },
        {
          "internalType": "address",
          "name": "_spender",
          "type": "address"
        }
      ],
      "name": "allowance",
      "outputs": [
        {
          "internalType": "uint256",
          "name": "",
          "type": "uint256"
        }
      ],
      "stateMutability": "view",
      "type": "function"
    },
    {
      "inputs": [
        {
          "internalType": "address",
          "name": "_spender",
          "type": "address"
        },
        {
          "internalType": "uint256",
          "name": "_value",
          "type": "uint256"
        }
      ],
      "name": "approve",
      "outputs": [
        {
          "internalType": "bool",
          "name": "",
          "type": "bool"
        }
      ],
      "stateMutability": "nonpayable",
      "type": "function"
    },
    {
      "inputs": [
        {
          "internalType": "address",
          "name": "_owner",
          "type": "address"
        }
      ],
      "name": "balanceOf",
      "outputs": [
        {
          "internalType": "uint256",
          "name": "balance",
          "type": "uint256"
        }
      ],
      "stateMutability": "view",
      "type": "function"
    },
    {
      "inputs": [],
      "name": "decimals",
      "outputs": [
        {
          "internalType": "uint8",
          "name": "",
          "type": "uint8"
        }
      ],
      "stateMutability": "view",
      "type": "function"
    },
    {
      "inputs": [
        {
          "internalType": "address",
          "name": "_owner",
          "type": "address"
        },
        {
          "internalType": "uint256",
          "name": "_amount",
          "type": "uint256"
        }
      ],
      "name": "mint",
      "outputs": [],
      "stateMutability": "nonpayable",
      "type": "function"
    },
    {
      "inputs": [],
      "name": "name",
      "outputs": [
        {
          "internalType": "string",
          "name": "",
          "type": "string"
        }
      ],
      "stateMutability": "view",
      "type": "function"
    },
    {
      "inputs": [],
      "name": "symbol",
      "outputs": [
        {
          "internalType": "string",
          "name": "",
          "type": "string"
        }
      ],
      "stateMutability": "view",
      "type": "function"
    },
    {
      "inputs": [],
      "name": "token_decimals",
      "outputs": [
        {
          "internalType": "uint8",
          "name": "",
          "type": "uint8"
        }
      ],
      "stateMutability": "view",
      "type": "function"
    },
    {
      "inputs": [],
      "name": "token_name",
      "outputs": [
        {
          "internalType": "string",
          "name": "",
          "type": "string"
        }
      ],
      "stateMutability": "view",
      "type": "function"
    },
    {
      "inputs": [],
      "name": "token_symbol",
      "outputs": [
        {
          "internalType": "string",
          "name": "",
          "type": "string"
        }
      ],
      "stateMutability": "view",
      "type": "function"
    },
    {
      "inputs": [],
      "name": "token_totalSupply",
      "outputs": [
        {
          "internalType": "uint256",
          "name": "",
          "type": "uint256"
        }
      ],
      "stateMutability": "view",
      "type": "function"
    },
    {
      "inputs": [],
      "name": "totalSupply",
      "outputs": [
        {
          "internalType": "uint256",
          "name": "",
          "type": "uint256"
        }
      ],
      "stateMutability": "view",
      "type": "function"
    },
    {
      "inputs": [
        {
          "internalType": "address",
          "name": "_to",
          "type": "address"
        },
        {
          "internalType": "uint256",
          "name": "_value",
          "type": "uint256"
        }
      ],
      "name": "transfer",
      "outputs": [
        {
          "internalType": "bool",
          "name": "",
          "type": "bool"
        }
      ],
      "stateMutability": "nonpayable",
      "type": "function"
    },
    {
      "inputs": [
        {
          "internalType": "address",
          "name": "_from",
          "type": "address"
        },
        {
          "internalType": "address",
          "name": "_to",
          "type": "address"
        },
        {
          "internalType": "uint256",
          "name": "_value",
          "type": "uint256"
        }
      ],
      "name": "transferFrom",
      "outputs": [
        {
          "internalType": "bool",
          "name": "",
          "type": "bool"
        }
      ],
      "stateMutability": "nonpayable",
      "type": "function"
    }
  ],
  "bytecode": "0x608060405234801561001057600080fd5b50604051611eb2380380611eb2833981810160405281019061003291906102a5565b8360009081610041919061055b565b508260019081610051919061055b565b5081600260006101000a81548160ff021916908360ff1602179055508060038190555080600460003373ffffffffffffffffffffffffffffffffffffffff1673ffffffffffffffffffffffffffffffffffffffff168152602001908152602001600020819055505050505061062d565b6000604051905090565b600080fd5b600080fd5b600080fd5b600080fd5b6000601f19601f8301169050919050565b7f4e487b7100000000000000000000000000000000000000000000000000000000600052604160045260246000fd5b610128826100df565b810181811067ffffffffffffffff82111715610147576101466100f0565b5b80604052505050565b600061015a6100c1565b9050610166828261011f565b919050565b600067ffffffffffffffff821115610186576101856100f0565b5b61018f826100df565b9050602081019050919050565b60005b838110156101ba57808201518184015260208101905061019f565b60008484015250505050565b60006101d96101d48461016b565b610150565b9050828152602081018484840111156101f5576101f46100da565b5b61020084828561019c565b509392505050565b600082601f83011261021d5761021c6100d5565b5b815161022d8482602086016101c6565b91505092915050565b600060ff82169050919050565b61024c81610236565b811461025757600080fd5b50565b60008151905061026981610243565b92915050565b6000819050919050565b6102828161026f565b811461028d57600080fd5b50565b60008151905061029f81610279565b92915050565b600080600080608085870312156102bf576102be6100cb565b5b600085015167ffffffffffffffff8111156102dd576102dc6100d0565b5b6102e987828801610208565b945050602085015167ffffffffffffffff81111561030a576103096100d0565b5b61031687828801610208565b93505060406103278782880161025a565b925050606061033887828801610290565b91505092959194509250565b600081519050919050565b7f4e487b7100000000000000000000000000000000000000000000000000000000600052602260045260246000fd5b6000600282049050600182168061039657607f821691505b6020821081036103a9576103a861034f565b5b50919050565b60008190508160005260206000209050919050565b60006020601f8301049050919050565b600082821b905092915050565b6000600883026104117fffffffffffffffffffffffffffffffffffffffffffffffffffffffffffffffff826103d4565b61041b86836103d4565b95508019841693508086168417925050509392505050565b6000819050919050565b600061045861045361044e8461026f565b610433565b61026f565b9050919050565b6000819050919050565b6104728361043d565b61048661047e8261045f565b8484546103e1565b825550505050565b600090565b61049b61048e565b6104a6818484610469565b505050565b5b818110156104ca576104bf600082610493565b6001810190506104ac565b5050565b601f82111561050f576104e0816103af565b6104e9846103c4565b810160208510156104f8578190505b61050c610504856103c4565b8301826104ab565b50505b505050565b600082821c905092915050565b600061053260001984600802610514565b1980831691505092915050565b600061054b8383610521565b9150826002028217905092915050565b61056482610344565b67ffffffffffffffff81111561057d5761057c6100f0565b5b610587825461037e565b6105928282856104ce565b600060209050601f8311600181146105c557600084156105b3578287015190505b6105bd858261053f565b865550610625565b601f1984166105d3866103af565b60005b828110156105fb578489015182556001820191506020850194506020810190506105d6565b868310156106185784890151610614601f891682610521565b8355505b6001600288020188555050505b505050505050565b6118768061063c6000396000f3fe608060405234801561001057600080fd5b50600436106101005760003560e01c806340c10f1911610097578063947a316811610066578063947a3168146102c557806395d89b41146102e3578063a9059cbb14610301578063dd62ed3e1461033157610100565b806340c10f191461022b5780634d2d0a3d146102475780636ebcf6071461026557806370a082311461029557610100565b80631f772a34116100d35780631f772a34146101a157806323b872dd146101bf578063313ce567146101ef5780633c4b303d1461020d57610100565b8063024c2ddd1461010557806306fdde0314610135578063095ea7b31461015357806318160ddd14610183575b600080fd5b61011f600480360381019061011a9190611242565b610361565b60405161012c919061129b565b60405180910390f35b61013d610386565b60405161014a9190611346565b60405180910390f35b61016d60048036038101906101689190611394565b610418565b60405161017a91906113ef565b60405180910390f35b61018b61063d565b604051610198919061129b565b60405180910390f35b6101a9610647565b6040516101b69190611346565b60405180910390f35b6101d960048036038101906101d4919061140a565b6106d5565b6040516101e691906113ef565b60405180910390f35b6101f7610b65565b6040516102049190611479565b60405180910390f35b610215610b7c565b6040516102229190611479565b60405180910390f35b61024560048036038101906102409190611394565b610b8f565b005b61024f610c9b565b60405161025c919061129b565b60405180910390f35b61027f600480360381019061027a9190611494565b610ca1565b60405161028c919061129b565b60405180910390f35b6102af60048036038101906102aa9190611494565b610cb9565b6040516102bc919061129b565b60405180910390f35b6102cd610d70565b6040516102da9190611346565b60405180910390f35b6102eb610dfe565b6040516102f89190611346565b60405180910390f35b61031b60048036038101906103169190611394565b610e90565b60405161032891906113ef565b60405180910390f35b61034b60048036038101906103469190611242565b611158565b604051610358919061129b565b60405180910390f35b6005602052816000526040600020602052806000526040600020600091509150505481565b606060008054610395906114f0565b80601f01602080910402602001604051908101604052809291908181526020018280546103c1906114f0565b801561040e5780601f106103e35761010080835404028352916020019161040e565b820191906000526020600020905b8154815290600101906020018083116103f157829003601f168201915b5050505050905090565b60008073ffffffffffffffffffffffffffffffffffffffff168373ffffffffffffffffffffffffffffffffffffffff1603610488576040517f08c379a000000000000000000000000000000000000000000000000000000000815260040161047f9061156d565b60405180910390fd5b600082116104cb576040517f08c379a00000000000000000000000000000000000000000000000000000000081526004016104c2906115d9565b60405180910390fd5b81600460003373ffffffffffffffffffffffffffffffffffffffff1673ffffffffffffffffffffffffffffffffffffffff16815260200190815260200160002054101561054d576040517f08c379a000000000000000000000000000000000000000000000000000000000815260040161054490611645565b60405180910390fd5b81600560003373ffffffffffffffffffffffffffffffffffffffff1673ffffffffffffffffffffffffffffffffffffffff16815260200190815260200160002060008573ffffffffffffffffffffffffffffffffffffffff1673ffffffffffffffffffffffffffffffffffffffff168152602001908152602001600020819055508273ffffffffffffffffffffffffffffffffffffffff163373ffffffffffffffffffffffffffffffffffffffff167f8c5be1e5ebec7d5bd14f71427d1e84f3dd0314c0f7b2291e5b200ac8c7c3b9258460405161062b919061129b565b60405180910390a36001905092915050565b6000600354905090565b60018054610654906114f0565b80601f0160208091040260200160405190810160405280929190818152602001828054610680906114f0565b80156106cd5780601f106106a2576101008083540402835291602001916106cd565b820191906000526020600020905b8154815290600101906020018083116106b057829003601f168201915b505050505081565b60008073ffffffffffffffffffffffffffffffffffffffff168373ffffffffffffffffffffffffffffffffffffffff1603610745576040517f08c379a000000000000000000000000000000000000000000000000000000000815260040161073c906116b1565b60405180910390fd5b81600560008673ffffffffffffffffffffffffffffffffffffffff1673ffffffffffffffffffffffffffffffffffffffff16815260200190815260200160002060003373ffffffffffffffffffffffffffffffffffffffff1673ffffffffffffffffffffffffffffffffffffffff168152602001908152602001600020541015610804576040517f08c379a00000000000000000000000000000000000000000000000000000000081526004016107fb9061171d565b60405180910390fd5b81600460008673ffffffffffffffffffffffffffffffffffffffff1673ffffffffffffffffffffffffffffffffffffffff168152602001908152602001600020541015801561089257506000600460008673ffffffffffffffffffffffffffffffffffffffff1673ffffffffffffffffffffffffffffffffffffffff16815260200190815260200160002054115b6108d1576040517f08c379a00000000000000000000000000000000000000000000000000000000081526004016108c890611789565b60405180910390fd5b81600460008673ffffffffffffffffffffffffffffffffffffffff1673ffffffffffffffffffffffffffffffffffffffff1681526020019081526020016000205461091c91906117d8565b600460008673ffffffffffffffffffffffffffffffffffffffff1673ffffffffffffffffffffffffffffffffffffffff1681526020019081526020016000208190555081600460008573ffffffffffffffffffffffffffffffffffffffff1673ffffffffffffffffffffffffffffffffffffffff168152602001908152602001600020546109aa919061180c565b600460008573ffffffffffffffffffffffffffffffffffffffff1673ffffffffffffffffffffffffffffffffffffffff1681526020019081526020016000208190555081600560008673ffffffffffffffffffffffffffffffffffffffff1673ffffffffffffffffffffffffffffffffffffffff16815260200190815260200160002060003373ffffffffffffffffffffffffffffffffffffffff1673ffffffffffffffffffffffffffffffffffffffff16815260200190815260200160002054610a7591906117d8565b600560008673ffffffffffffffffffffffffffffffffffffffff1673ffffffffffffffffffffffffffffffffffffffff16815260200190815260200160002060003373ffffffffffffffffffffffffffffffffffffffff1673ffffffffffffffffffffffffffffffffffffffff168152602001908152602001600020819055508273ffffffffffffffffffffffffffffffffffffffff168473ffffffffffffffffffffffffffffffffffffffff167fddf252ad1be2c89b69c2b068fc378daa952ba7f163c4a11628f55a4df523b3ef84604051610b52919061129b565b60405180910390a3600190509392505050565b6000600260009054906101000a900460ff16905090565b600260009054906101000a900460ff1681565b80600354610b9d919061180c565b60038190555080600460008473ffffffffffffffffffffffffffffffffffffffff1673ffffffffffffffffffffffffffffffffffffffff16815260200190815260200160002054610bee919061180c565b600460008473ffffffffffffffffffffffffffffffffffffffff1673ffffffffffffffffffffffffffffffffffffffff168152602001908152602001600020819055503373ffffffffffffffffffffffffffffffffffffffff16600073ffffffffffffffffffffffffffffffffffffffff167fddf252ad1be2c89b69c2b068fc378daa952ba7f163c4a11628f55a4df523b3ef83604051610c8f919061129b565b60405180910390a35050565b60035481565b60046020528060005260406000206000915090505481565b60008073ffffffffffffffffffffffffffffffffffffffff168273ffffffffffffffffffffffffffffffffffffffff1603610d29576040517f08c379a0000000000000000000000000000000000000000000000000000000008152600401610d20906116b1565b60405180910390fd5b600460008373ffffffffffffffffffffffffffffffffffffffff1673ffffffffffffffffffffffffffffffffffffffff168152602001908152602001600020549050919050565b60008054610d7d906114f0565b80601f0160208091040260200160405190810160405280929190818152602001828054610da9906114f0565b8015610df65780601f10610dcb57610100808354040283529160200191610df6565b820191906000526020600020905b815481529060010190602001808311610dd957829003601f168201915b505050505081565b606060018054610e0d906114f0565b80601f0160208091040260200160405190810160405280929190818152602001828054610e39906114f0565b8015610e865780601f10610e5b57610100808354040283529160200191610e86565b820191906000526020600020905b815481529060010190602001808311610e6957829003601f168201915b5050505050905090565b60008073ffffffffffffffffffffffffffffffffffffffff168373ffffffffffffffffffffffffffffffffffffffff1603610f00576040517f08c379a0000000000000000000000000000000000000000000000000000000008152600401610ef7906116b1565b60405180910390fd5b81600460003373ffffffffffffffffffffffffffffffffffffffff1673ffffffffffffffffffffffffffffffffffffffff1681526020019081526020016000205410158015610f8e57506000600460003373ffffffffffffffffffffffffffffffffffffffff1673ffffffffffffffffffffffffffffffffffffffff16815260200190815260200160002054115b610fcd576040517f08c379a0000000000000000000000000000000000000000000000000000000008152600401610fc490611789565b60405180910390fd5b81600460003373ffffffffffffffffffffffffffffffffffffffff1673ffffffffffffffffffffffffffffffffffffffff1681526020019081526020016000205461101891906117d8565b600460003373ffffffffffffffffffffffffffffffffffffffff1673ffffffffffffffffffffffffffffffffffffffff1681526020019081526020016000208190555081600460008573ffffffffffffffffffffffffffffffffffffffff1673ffffffffffffffffffffffffffffffffffffffff168152602001908152602001600020546110a6919061180c565b600460008573ffffffffffffffffffffffffffffffffffffffff1673ffffffffffffffffffffffffffffffffffffffff168152602001908152602001600020819055508273ffffffffffffffffffffffffffffffffffffffff163373ffffffffffffffffffffffffffffffffffffffff167fddf252ad1be2c89b69c2b068fc378daa952ba7f163c4a11628f55a4df523b3ef84604051611146919061129b565b60405180910390a36001905092915050565b6000600560008373ffffffffffffffffffffffffffffffffffffffff1673ffffffffffffffffffffffffffffffffffffffff16815260200190815260200160002060008473ffffffffffffffffffffffffffffffffffffffff1673ffffffffffffffffffffffffffffffffffffffff16815260200190815260200160002054905092915050565b600080fd5b600073ffffffffffffffffffffffffffffffffffffffff82169050919050565b600061120f826111e4565b9050919050565b61121f81611204565b811461122a57600080fd5b50565b60008135905061123c81611216565b92915050565b60008060408385031215611259576112586111df565b5b60006112678582860161122d565b92505060206112788582860161122d565b9150509250929050565b6000819050919050565b61129581611282565b82525050565b60006020820190506112b0600083018461128c565b92915050565b600081519050919050565b600082825260208201905092915050565b60005b838110156112f05780820151818401526020810190506112d5565b60008484015250505050565b6000601f19601f8301169050919050565b6000611318826112b6565b61132281856112c1565b93506113328185602086016112d2565b61133b816112fc565b840191505092915050565b60006020820190508181036000830152611360818461130d565b905092915050565b61137181611282565b811461137c57600080fd5b50565b60008135905061138e81611368565b92915050565b600080604083850312156113ab576113aa6111df565b5b60006113b98582860161122d565b92505060206113ca8582860161137f565b9150509250929050565b60008115159050919050565b6113e9816113d4565b82525050565b600060208201905061140460008301846113e0565b92915050565b600080600060608486031215611423576114226111df565b5b60006114318682870161122d565b93505060206114428682870161122d565b92505060406114538682870161137f565b9150509250925092565b600060ff82169050919050565b6114738161145d565b82525050565b600060208201905061148e600083018461146a565b92915050565b6000602082840312156114aa576114a96111df565b5b60006114b88482850161122d565b91505092915050565b7f4e487b7100000000000000000000000000000000000000000000000000000000600052602260045260246000fd5b6000600282049050600182168061150857607f821691505b60208210810361151b5761151a6114c1565b5b50919050565b7f43616e2774207472616e7366657220746f2061646472657373207a65726f0000600082015250565b6000611557601e836112c1565b915061156282611521565b602082019050919050565b600060208201905081810360008301526115868161154a565b9050919050565b7f43616e27742073656e64207a65726f2076616c75650000000000000000000000600082015250565b60006115c36015836112c1565b91506115ce8261158d565b602082019050919050565b600060208201905081810360008301526115f2816115b6565b9050919050565b7f2142616c00000000000000000000000000000000000000000000000000000000600082015250565b600061162f6004836112c1565b915061163a826115f9565b602082019050919050565b6000602082019050818103600083015261165e81611622565b9050919050565b7f215a410000000000000000000000000000000000000000000000000000000000600082015250565b600061169b6003836112c1565b91506116a682611665565b602082019050919050565b600060208201905081810360008301526116ca8161168e565b9050919050565b7f21414c0000000000000000000000000000000000000000000000000000000000600082015250565b60006117076003836112c1565b9150611712826116d1565b602082019050919050565b60006020820190508181036000830152611736816116fa565b9050919050565b7f4e6f7420656e6f7567682062616c616e63650000000000000000000000000000600082015250565b60006117736012836112c1565b915061177e8261173d565b602082019050919050565b600060208201905081810360008301526117a281611766565b9050919050565b7f4e487b7100000000000000000000000000000000000000000000000000000000600052601160045260246000fd5b60006117e382611282565b91506117ee83611282565b9250828203905081811115611806576118056117a9565b5b92915050565b600061181782611282565b915061182283611282565b925082820190508082111561183a576118396117a9565b5b9291505056fea2646970667358221220fdc13ec51db0c0b55a16b2d0be04ccaf937a2b877f5b7dc3348fe5956db563ae64736f6c634300081e0033",
  "linkReferences": {},
  "deployedLinkReferences": {}
}