{
  "_format": "hh-sol-artifact-1",
  "contractName": "SaveEther",
  "sourceName": "contracts/SaveEther.sol",
  "abi": [
    {
      "anonymous": false,
      "inputs": [
        {
          "indexed": true,
          "internalType": "address",
          "name": "sender",
          "type": "address"
        },
        {
          "indexed": true,
          "internalType": "uint256",
          "name": "amount",
          "type": "uint256"
        }
      ],
      "name": "DepositSuccessful",
      "type": "event"
    },
    {
      "anonymous": false,
      "inputs": [
        {
          "indexed": true,
          "internalType": "address",
          "name": "receiver",
          "type": "address"
        },
        {
          "indexed": true,
          "internalType": "uint256",
          "name": "amount",
          "type": "uint256"
        },
        {
          "indexed": false,
          "internalType": "bytes",
          "name": "data",
          "type": "bytes"
        }
      ],
      "name": "WithdrawalSuccessful",
      "type": "event"
    },
    {
      "stateMutability": "nonpayable",
      "type": "fallback"
    },
    {
      "inputs": [
        {
          "internalType": "address",
          "name": "",
          "type": "address"
        }
      ],
      "name": "balances",
      "outputs": [
        {
          "internalType": "uint256",
          "name": "",
          "type": "uint256"
        }
      ],
      "stateMutability": "view",
      "type": "function"
    },
    {
      "inputs": [],
      "name": "deposit",
      "outputs": [],
      "stateMutability": "payable",
      "type": "function"
    },
    {
      "inputs": [],
      "name": "getContractBalance",
      "outputs": [
        {
          "internalType": "uint256",
          "name": "",
          "type": "uint256"
        }
      ],
      "stateMutability": "view",
      "type": "function"
    },
    {
      "inputs": [],
      "name": "getUserSavings",
      "outputs": [
        {
          "internalType": "uint256",
          "name": "",
          "type": "uint256"
        }
      ],
      "stateMutability": "view",
      "type": "function"
    },
    {
      "inputs": [
        {
          "internalType": "uint256",
          "name": "_amount",
          "type": "uint256"
        }
      ],
      "name": "withdraw",
      "outputs": [],
      "stateMutability": "nonpayable",
      "type": "function"
    },
    {
      "stateMutability": "payable",
      "type": "receive"
    }
  ],
  "bytecode": "0x6080604052348015600f57600080fd5b5061098d8061001f6000396000f3fe60806040526004361061004e5760003560e01c806327e235e3146100635780632e1a7d4d146100a0578063690e2ea9146100c95780636f9fb98a146100f4578063d0e30db01461011f57610055565b3661005557005b34801561006157600080fd5b005b34801561006f57600080fd5b5061008a6004803603810190610085919061054d565b610129565b6040516100979190610593565b60405180910390f35b3480156100ac57600080fd5b506100c760048036038101906100c291906105da565b610141565b005b3480156100d557600080fd5b506100de610387565b6040516100eb9190610593565b60405180910390f35b34801561010057600080fd5b506101096103cd565b6040516101169190610593565b60405180910390f35b6101276103d5565b005b60006020528060005260406000206000915090505481565b600073ffffffffffffffffffffffffffffffffffffffff163373ffffffffffffffffffffffffffffffffffffffff16036101b0576040517f08c379a00000000000000000000000000000000000000000000000000000000081526004016101a790610664565b60405180910390fd5b60008060003373ffffffffffffffffffffffffffffffffffffffff1673ffffffffffffffffffffffffffffffffffffffff16815260200190815260200160002054905060008111610236576040517f08c379a000000000000000000000000000000000000000000000000000000000815260040161022d906106d0565b60405180910390fd5b8181610242919061071f565b6000803373ffffffffffffffffffffffffffffffffffffffff1673ffffffffffffffffffffffffffffffffffffffff168152602001908152602001600020819055506000803373ffffffffffffffffffffffffffffffffffffffff16846040516102ab90610784565b60006040518083038185875af1925050503d80600081146102e8576040519150601f19603f3d011682016040523d82523d6000602084013e6102ed565b606091505b509150915081610332576040517f08c379a0000000000000000000000000000000000000000000000000000000008152600401610329906107e5565b60405180910390fd5b833373ffffffffffffffffffffffffffffffffffffffff167f38c4cbe065ed2235be0df490ea24f35671853f70bb149d4ff8739d9f8d716af6836040516103799190610895565b60405180910390a350505050565b60008060003373ffffffffffffffffffffffffffffffffffffffff1673ffffffffffffffffffffffffffffffffffffffff16815260200190815260200160002054905090565b600047905090565b60003411610418576040517f08c379a000000000000000000000000000000000000000000000000000000000815260040161040f90610903565b60405180910390fd5b346000803373ffffffffffffffffffffffffffffffffffffffff1673ffffffffffffffffffffffffffffffffffffffff168152602001908152602001600020546104629190610923565b6000803373ffffffffffffffffffffffffffffffffffffffff1673ffffffffffffffffffffffffffffffffffffffff16815260200190815260200160002081905550343373ffffffffffffffffffffffffffffffffffffffff167fb3ef81558ed1a50072a492984535a009da8b129c749500b387f1e5f4886bdde560405160405180910390a3565b600080fd5b600073ffffffffffffffffffffffffffffffffffffffff82169050919050565b600061051a826104ef565b9050919050565b61052a8161050f565b811461053557600080fd5b50565b60008135905061054781610521565b92915050565b600060208284031215610563576105626104ea565b5b600061057184828501610538565b91505092915050565b6000819050919050565b61058d8161057a565b82525050565b60006020820190506105a86000830184610584565b92915050565b6105b78161057a565b81146105c257600080fd5b50565b6000813590506105d4816105ae565b92915050565b6000602082840312156105f0576105ef6104ea565b5b60006105fe848285016105c5565b91505092915050565b600082825260208201905092915050565b7f41646472657373207a65726f2064657465637465640000000000000000000000600082015250565b600061064e601583610607565b915061065982610618565b602082019050919050565b6000602082019050818103600083015261067d81610641565b9050919050565b7f496e73756666696369656e742066756e64730000000000000000000000000000600082015250565b60006106ba601283610607565b91506106c582610684565b602082019050919050565b600060208201905081810360008301526106e9816106ad565b9050919050565b7f4e487b7100000000000000000000000000000000000000000000000000000000600052601160045260246000fd5b600061072a8261057a565b91506107358361057a565b925082820390508181111561074d5761074c6106f0565b5b92915050565b600081905092915050565b50565b600061076e600083610753565b91506107798261075e565b600082019050919050565b600061078f82610761565b9150819050919050565b7f7472616e73666572206661696c65640000000000000000000000000000000000600082015250565b60006107cf600f83610607565b91506107da82610799565b602082019050919050565b600060208201905081810360008301526107fe816107c2565b9050919050565b600081519050919050565b600082825260208201905092915050565b60005b8381101561083f578082015181840152602081019050610824565b60008484015250505050565b6000601f19601f8301169050919050565b600061086782610805565b6108718185610810565b9350610881818560208601610821565b61088a8161084b565b840191505092915050565b600060208201905081810360008301526108af818461085c565b905092915050565b7f43616e2774206465706f736974207a65726f2076616c75650000000000000000600082015250565b60006108ed601883610607565b91506108f8826108b7565b602082019050919050565b6000602082019050818103600083015261091c816108e0565b9050919050565b600061092e8261057a565b91506109398361057a565b9250828201905080821115610951576109506106f0565b5b9291505056fea26469706673582212200b7c88a4411f169ca6054f4a9931f18db2723190554b793f927401cdfc8b935c64736f6c634300081e0033",
  "linkReferences": {},
  "deployedLinkReferences": {}
}